:020000040800F2
:10000000B810002001010008910900081508000837
:100010008D090008CF0600082F1500080000000019
:10002000000000000000000000000000750E000845
:10003000D3060008000000005D0D0008890F0008CD
:100040001B0100081B0100081B0100081B01000820
:100050001B0100081B0100081B0100081B01000810
:100060001B0100081B0100081B0100081B01000800
:100070001B0100081B0100081B0100081B010008F0
:100080001B0100081B0100081B0100081B010008E0
:100090001B0100081B0100081B0100081B010008D0
:1000A0001B0100081B0100081B0100081B010008C0
:1000B0001B0100081B0100081B0100081B010008B0
:1000C0001B0100081B0100081B0100081B010008A0
:1000D0001B010008ED0F0008B5110008E912000827
:1000E0001B0100081B0100081B010008DFF80CD0F1
:1000F00000F022FA004800472D210008B810002027
:100100000648804706480047FEE7FEE7FEE7FEE7B1
:10011000FEE7FEE7FEE7FEE7FEE7FEE78D0F0008DD
:10012000ED000008CAB2401E10F8011F8A4202D03A
:100130000029F9D10020704730B50B460146002058
:100140002022012409E021FA02F59D4205D303FA99
:1001500002F5491B04FA02F52844151EA2F101021A
:10016000F1DC30BD2DE9F05F0546002092469B464C
:1001700088460646814640241BE0284641464746BD
:10018000224600F0FAF953465A46C01A914110D35C
:1001900011461846224600F0E1F92D1A67EB0108D6
:1001A0004F4622460120002100F0D8F917EB000944
:1001B0004E41201EA4F10104DFDC484631462A46A8
:1001C0004346BDE8F09F2DE9FE4F804681EA0300DB
:1001D000C00F0C46009021F0004123F00045B8EB21
:1001E0000200A94105D24046214690461C460B46D6
:1001F000024623F00040104347D0270DC7F30A0002
:10020000C3F30A510290401A019040286BDAC3F3FD
:10021000130040F4801B0098924620B10023D2EBDB
:10022000030A63EB0B0B01985946C0F1400250469C
:1002300000F094F906460D4650465946019A00F0E2
:10024000ACF910EB08006141002487EA115284EAFE
:10025000E7731A4340D0009A62B3019A012A4FEA29
:10026000075215DC001B61EB02014FF0004202EA6D
:100270000752CDE90042001C41F5801132462B4661
:1002800000F0ACF903B0BDE8F08F40462146F9E735
:10029000001B61EB0201001C41F5801300185B415B
:1002A0002018A2F5001747EB030140EAD570B619F4
:1002B0006D4111E06D084FEA360645EAC0754FEA18
:1002C0000752001B61EB0201001C41F58011490837
:1002D0004FEA30000019514132462B4603B0BDE8C9
:1002E000F04F00F06CB90098012240000023D0EBE1
:1002F000020263EBE073009821464FEAE074B8EB2A
:10030000000061EB0401E9E783F000435BE781F063
:10031000004158E72DE9FE4F81EA030404F0004450
:1003200021F0004100944FF0000B23F0004350EA0D
:1003300001045ED052EA03045BD0C3F30A54C1F354
:100340000A552C44A4F2F3340194A0FB0254C1F3E7
:10035000130141F48011C3F3130343F4801301FB31
:10036000024400FB034E840A970A44EA815447EA98
:100370008357A4FB076802958D0A05FB07854FEAA2
:10038000932C04FB0C542705029D4FEA065847EABC
:100390001637B5EB08056EEB070C870E920E47EA91
:1003A000811742EA8312A7FB0201B6EB0B0164EB53
:1003B00000042B0D43EA0C335E1844EB1C50DA4664
:1003C0005146E7FB0201C5F313044FEA0B3343EA3E
:1003D00014534FEA0432019C43EA0603A4F10C04CF
:1003E0000294009CCDE900B400F0F8F803B0BDE839
:1003F000F08F00200146F9E72DE9F04D81EA030472
:1004000004F0004B21F0004514464FF0000A23F0A1
:10041000004150EA050220D054EA01021DD0C5F384
:100420000A570246C5F31303C1F31300C1F30A567A
:1004300040F4801543F48013A7EB0608101BD64642
:1004400008F2FD3873EB050002D308F1010801E062
:1004500092185B41B8F1000F03DA00200146BDE8B5
:10046000F08D00204FF48011064684460EE0171BE5
:1004700073EB050705D3121B63EB050306434CEA38
:10048000010C49084FEA300092185B4150EA01071D
:10049000EDD152EA030012D082EA040083EA05019A
:1004A000084305D0101BAB4106D20122002306E011
:1004B00000224FF0004302E06FF0010253101AEBEC
:1004C00006004CEB085110EB0A0041EB0B01BDE8B4
:1004D000F04D00F074B8C1F30A52C1F3130140F2B9
:1004E000FF3341F480119A4202DA0020014670473E
:1004F00040F233439A42A2F2334202DC524200F00D
:100500003CB800F02BB8000030B5041E71F10004B7
:1005100004DB4FF00044404264EB0101141E73F110
:10052000000405DB1C464FF00043524263EB04031A
:10053000994208BF904230BD064C074D06E0E06886
:1005400040F0010394E8070098471034AC42F6D31A
:10055000FFF7D0FD5C2200087C220008202A04DB83
:10056000203A00FA02F1002070479140C2F12003C6
:1005700020FA03F3194390407047202A04DB203A05
:1005800021FA02F00021704721FA02F3D040C2F1B3
:1005900020029140084319467047202A06DBCB17FA
:1005A000203A41FA02F043EAE07306E041FA02F32E
:1005B000D040C2F12002914008431946704710B55F
:1005C000141E73F1000408DA401C41F10001921876
:1005D0005B411A4301D120F0010010BD2DE9F04D1F
:1005E00092469B4611B1B1FA81F202E0B0FA80F274
:1005F00020329046FFF7B2FF04460F4640EA0A0059
:1006000041EA0B0153465A46084313D0114653EAB8
:10061000010019D0C8F140025046FFF7AEFF054671
:100620000E46504659464246FFF798FF084305D00C
:10063000012004E020463946BDE8F08D0020054346
:1006400046EAE0762C4337430A986305E40AA0EBB8
:1006500008000022FD0A44EA47540A3002D500206F
:100660000146E9E7010510196941DDE9084500196E
:100670006941BDE8F04DA2E770B58C1810F8015B38
:1006800015F0070301D110F8013B2A1106D110F82B
:10069000012B03E010F8016B01F8016B5B1EF9D12F
:1006A0002B0705D40023521E0DD401F8013BFAE7B5
:1006B00010F8013BCB1A921C03E013F8015B01F820
:1006C000015B521EF9D5A142D8D3002070BD00BFF6
:1006D000FEE77047044900E0521C11F8013B002B73
:1006E000FAD1500870470000A40A00202DE9F0411B
:1006F000024600250026002000230024002791F850
:1007000003C00CF00F0591F803C00CF0100CBCF105
:10071000000F03D091F802C04CEA050591F800C023
:10072000BCF1000F31D0146800202BE04FF0010C19
:100730000CFA00F3B1F800C00CEA03069E4220D187
:1007400083004FF00F0C0CFA03F7BC4305FA03FCCF
:100750004CEA040491F803C0BCF1280F06D14FF015
:10076000010C0CFA00FCC2F814C00AE091F803C0B6
:10077000BCF1480F05D14FF0010C0CFA00FCC2F897
:1007800010C0401C0828D1D31460B1F800C0BCF1DF
:10079000FF0F34DD546800202EE000F1080C4FF00C
:1007A000010808FA0CF3B1F800C00CEA03069E42F7
:1007B00021D183004FF00F0C0CFA03F7BC4305FA6C
:1007C00003FC4CEA040491F803C0BCF1280F05D1E6
:1007D00000F1080C08FA0CF8C2F8148091F803C074
:1007E000BCF1480F07D100F1080C4FF0010808FADE
:1007F0000CF8C2F81080401C0828CED35460BDE825
:10080000F0810246002093680B400BB1012000E00C
:100810000020704700BFFEE7002001E0411CC8B285
:100820000A28FBDB7047000008B50121082000F012
:10083000A7FA4FF48070ADF8000003208DF8020095
:1008400014208DF8030069460648FFF74FFF4FF468
:100850000070ADF8000069460248FFF747FF00F05E
:100860001DF808BD000C014010B5012009490860C1
:100870000949C1F8A001FFF7CFFF00200549086032
:10088000FFF7CAFF00200449C1F8A001FFF7C4FF29
:1008900010BD0000A48121420080214210B500203B
:1008A0000549086001200549C1F8A001FFF7B4FF20
:1008B00001200149086010BDA4812142008021422D
:1008C00010B501200D490860FFF7A6FF01200C4973
:1008D000C1F8A001FFF7A0FF4FF400710948FFF72E
:1008E00090FF08B1012400E0002400200349091F03
:1008F0000860FFF791FF204610BD0000A48121424F
:1009000000802142000C014008B50121082000F0C0
:1009100037FA4FF47040ADF8000048208DF803001E
:1009200069460248FFF7E2FE08BD0000000C0140E6
:1009300008B50121102000F023FA4FF40050ADF863
:10094000000010208DF8030003208DF80200694696
:100950000B48FFF7CBFE0121082000F011FAA02080
:10096000ADF8000010208DF8030003208DF8020080
:1009700069460448FFF7BAFE01200349086008BD34
:1009800000100140000C0140B401224200BFFEE70C
:100990007047000070B5002100230F22C47804B313
:1009A000154C246804F4E064C4F5E064210AC1F144
:1009B0000403CA40447804FA03F1847814402143C4
:1009C00009010E4C0678A155047804F01F05012496
:1009D000AC4005786D11AD0005F1E025C5F800418A
:1009E00009E0047804F01F050124AC40044D0678AA
:1009F000761145F8264070BD0CED00E000E400E003
:100A000080E100E010B5002000F001F810BD70B5E5
:100A10000646002415E004F1B001C8B200F088FEDB
:100A2000002000F085FE102000F082FE002504E08A
:100A3000304600F093FE681CC5B2822DF8DB601CC6
:100A4000C4B2082CE7DB70BD10B5FFF743FE2B499D
:100A50000860FFF7E9FEAE2000F06AFE002000F01B
:100A600067FE102000F064FE402000F061FEB02020
:100A700000F05EFE812000F05BFEFF2000F058FEDB
:100A8000A12000F055FEA62000F052FEA82000F0A4
:100A90004FFE3F2000F04CFEC82000F049FED3205E
:100AA00000F046FE002000F043FED52000F040FE9E
:100AB000802000F03DFED82000F03AFE052000F036
:100AC00037FED92000F034FEF12000F031FEDA20AC
:100AD00000F02EFE122000F02BFEDB2000F028FE9E
:100AE000302000F025FE8D2000F022FE142000F0C2
:100AF0001FFEAF2000F01CFE10BD0000300B0020D8
:100B000070B504460D4605F1B001C8B200F010FE04
:100B1000A11CC1F3031141F0100000F009FEA11C5B
:100B200001F00F0141F0010000F002FE70BD000075
:100B30002DE9F047074688461646002580E03078C4
:100B4000A02843DD00253AE0702F04DD002708F1DE
:100B5000020000F0FF0830783C4911F81510884277
:100B60002CD17078012101EB4501384A515C884253
:100B700024D141463846FFF7C3FF002406E004EBCA
:100B80004511334A505C00F0E9FD641C102CF6D38B
:100B900008F10100C1B23846FFF7B2FF002407E0B8
:100BA00004EB451110312A4A505C00F0D7FD641C5B
:100BB000102CF5D307F11000C7B204E06D1C2548D6
:100BC00000688542C0D300BFB61C39E07A2F04DD2F
:100BD000002708F1020000F0FF0831781E48FFF7F7
:100BE000A1FA8146B9F1000F29D041463846FFF7F6
:100BF00087FF002409E099F80010203904EB011167
:100C0000164A505C00F0AAFD641C082CF3D308F1CE
:100C10000100C1B23846FFF773FF00240AE099F8DB
:100C20000010203904EB011108310C4A505C00F02F
:100C300095FD641C082CF2D307F10800C7B2761C9E
:100C4000307800287FF47BAFBDE8F087A40A00204D
:100C500004080020300B0020CF0A0020680000208C
:100C60002DE9F04107460E46904600250024A8F1E4
:100C70003000C5B2812F02DD0027B01CC6B231465C
:100C80003846FFF73DFF002407E004EB05110E4A4C
:100C9000505C00F063FD601CC4B2082CF5DB701CD6
:100CA000C1B23846FFF72CFF002408E004EB051121
:100CB0000831054A505C00F051FD601CC4B2082C9C
:100CC000F4DBBDE8F0810000680000202DE9F05F52
:100CD0000546894690461E46DDF828A04FF0000BD9
:100CE000002437E0301B401EC1B20A2001F084FA14
:100CF000B8FBF0F00A21B0FBF1F201FB1207BBF1E7
:100D0000000F1AD1701EA04217DDA7B9BAF1000F6B
:100D100008D0082101FB0451C8B230224946FFF730
:100D20009FFF07E0082101FB0451C8B22022494679
:100D3000FFF796FF0CE04FF0010B07F14001CAB23C
:100D4000082101FB0451C8B24946FFF789FF00BFE3
:100D5000601CC4B2B442C5DBBDE8F09F7047000020
:100D600029B1064AD2690243044BDA6104E0034A1E
:100D7000D2698243014BDA617047000000100240E3
:100D800029B1064A92690243044B9A6104E0034A7E
:100D900092698243014B9A61704700000010024043
:100DA00030B500210022002400232D4D6D6805F090
:100DB0000C0121B1042905D0082923D105E0294DD2
:100DC000056022E0274D05601FE0254D6D6805F4A4
:100DD0007012234D6D6805F48034022505EB9242B4
:100DE0001CB9214D554305600BE01D4D6D6805F4A0
:100DF00000351DB11C4D5543056002E0194D5543AA
:100E0000056002E0174D056000BF00BF144D6D681E
:100E100005F0F0010909154D6B5C0568DD40456082
:100E20000F4D6D6805F4E061090A104D6B5C456873
:100E3000DD4085600A4D6D6805F46051C90A0B4DAF
:100E40006B5C4568DD40C560054D6D6805F440414B
:100E5000890B074D6B5CC568B5FBF3F5056130BDCB
:100E60000010024000127A0000093D0054000020EA
:100E700064000020704710B500F002F810BD0000BB
:100E80000CB50020019000903348006840F4803099
:100E90003149086000BF3048006800F4003000901D
:100EA0000198401C0190009818B90198B0F5A06F06
:100EB000F1D12948006800F4003010B10120009001
:100EC00001E0002000900098012843D123480068E9
:100ED00040F01000214908600846006820F0030037
:100EE00008600846006840F0020008601A48406840
:100EF000194948600846406848600846406840F420
:100F0000806048600846406820F47C1048600846CD
:100F1000406840F4E81048600846006840F080707F
:100F2000086000BF0C48006800F000700028F9D08D
:100F30000948406820F003000749486008464068B7
:100F400040F00200486000BF0348406800F00C0019
:100F50000828F9D10CBD000000100240002002401A
:100F6000042808D14FF0E021096941F004014FF055
:100F7000E022116107E04FF0E021096921F004014E
:100F80004FF0E022116170477047000010B5134820
:100F9000006840F0010011490860084640681049A7
:100FA00008400E494860084600680E4908400B4951
:100FB00008600846006820F4802008600846406801
:100FC00020F4FE0048604FF41F008860FFF753FFD5
:100FD0004FF000600449086010BD0000001002409E
:100FE0000000FFF8FFFFF6FE08ED00E010B540F24C
:100FF0002551664800F0D6F9002878D0634800F003
:101000008DFAC4B2624804700078412827D1614843
:10101000006808B9012000E000205E49086012E085
:101020005D485E4A1278815C5D4800F07CFA00BF42
:1010300040215B4800F0A9F90128F9D15748007810
:10104000401C56490870544854490978405CF128BE
:10105000E6D10020514908704D49087093E04C4892
:10106000007842281FD112E04E484C4A1278815C29
:101070004B4800F058FA00BF4021494800F085F97C
:101080000128F9D145480078401C4449087045487A
:1010900042490978405CF128E6D100203F490870B8
:1010A0003B4908706FE03A480078432820D112E0AD
:1010B0003D483A4A1278815C394800F034FA00BF62
:1010C0004021374800F061F90128F9D13348007810
:1010D000401C32490870344830490978405CF12896
:1010E000E6D100202D490870294908704BE04BE0FB
:1010F0002748007844281FD112E02C48274A12784C
:10110000815C274800F00FFA00BF4021244800F01E
:101110003CF90128F9D121480078401C1F4908708A
:1011200022481E490978405CF128E6D100201B497D
:1011300008701749087026E01548007845281FD127
:1011400012E01B48154A1278815C154800F0EBF953
:1011500000BF4021124800F018F90128F9D10F48CA
:101160000078401C0D49087011480C490978405C12
:10117000F128E6D10020094908700549087002E00D
:1011800000200349087000BF10BD00000038014076
:10119000340B0020B4012242210000202000002056
:1011A000004400402A000020330000203C000020C2
:1011B0004500002008B540F22551444800F0F2F8FF
:1011C000002833D040F22551404800F0C3F83F4892
:1011D00000F0A4F93E493F4A128888543D480088EF
:1011E000401C3C49088008460088401E3849085C7D
:1011F000FF2803D037480088802866D1344800781B
:10120000FE2814D132488078A02810D13048807947
:10121000314908700120022300900846027800211D
:101220002820FFF753FD00202A4908804DE0284878
:101230000078FE2814D126488078A12810D12448AF
:101240008079264908700120022300900846027820
:1012500000216820FFF73AFD00201E49088034E095
:101260001B480078FE2814D119488078A22810D194
:10127000174880791A490870012002230090084617
:10128000027819462820FFF721FD00201149088027
:101290001BE00F480078FE2814D10D488078A32861
:1012A00010D10B4880790F4908700120022300906B
:1012B0000846027819466820FFF708FD0020054916
:1012C000088002E000200349088008BD0044004077
:1012D000B40B00205000002000000020010000207E
:1012E000020000200300002010B540F225511748ED
:1012F00000F058F840B3154800F010F9C4B2144893
:1013000004700078412803D10020114908701AE0C8
:101310000F480078422803D100200D49087012E0E0
:101320000B480078432803D10020094908700AE0DF
:1013300007480078442803D100200549087002E0DE
:1013400000200349087000BF10BD000000480040A5
:10135000340C002010B50022002340F66A14A1428C
:1013600000D100BF0A1201249440A3B2DC430480E0
:1013700010BD21B1828942F40052828104E0828949
:101380004DF6FF731A408281704702460020B1F586
:10139000007F00D100BF13880B400BB1012000E09B
:1013A0000020704770B5024600240023002500206D
:1013B00040F66A16B14200D100BFC1F3421501F0F8
:1013C0001F03012606FA03F3012D02D1968933404B
:1013D00006E0022D02D1168A334001E0968A33409E
:1013E0000C12012606FA04F41688344013B10CB12D
:1013F000012000E0002070BDF0B503460024002667
:101400000025002040F66A17B94200D100BF1846F7
:10141000C1F3421401F01F06012707FA06F5012C5B
:1014200001D10C3004E0022C01D1103000E0143066
:101430001AB107682F43076002E00768AF430760EF
:10144000F0BD00002DE9F04786B005460E460024A9
:10145000A24600BFA1460027B08900B100BF2F46B9
:101460002C8A4CF6FF700440F08804432C82AC892F
:101470004EF6F3100440B08831890843718908435F
:101480000443AC81AC8A4FF6FF400440B08904436A
:10149000AC8201A8FFF784FC1F48874202D1DDF827
:1014A00010A001E0DDF80CA0A88900F4004040B1D4
:1014B0000AEBCA0000EB0A1031684900B0FBF1F8F2
:1014C00007E00AEBCA0000EB0A1031688900B0FBA4
:1014D000F1F86420B8FBF0F004012009642101FB5D
:1014E0001089A88900F4004040B1322000EBC90007
:1014F000B0FBF1F000F00700044308E0322000EBFD
:1015000009106421B0FBF1F000F00F0004432C81BE
:1015100006B0BDE8F0870000003801400146888829
:10152000C0F308007047C1F308028280704700BF13
:10153000FEE7000010B586B0044601210420FFF745
:101540001FFC01218803FFF71BFC18208DF81700F2
:101550004FF40070ADF8140003208DF8160005A9B3
:101560001E48FFF7C3F804208DF817000002ADF8FD
:10157000140003208DF8160005A91848FFF7B6F8E7
:1015800001940020ADF810000C20ADF80E000020F2
:10159000ADF80C00ADF80A00ADF8080001A910483C
:1015A000FFF750FF01210E48FFF7E3FE012240F252
:1015B00025510B48FFF720FF25208DF80000012062
:1015C0008DF8030000208DF8010002208DF8020044
:1015D0006846FFF7DFF906B010BD000000080140C3
:1015E0000038014010B586B0044601210420FFF701
:1015F000C7FB01214804FFF7B3FB18208DF8170043
:101600000420ADF8140003208DF8160005A91E482B
:10161000FFF76CF804208DF817000820ADF81400CF
:1016200003208DF8160005A91748FFF75FF801940D
:101630000020ADF810000C20ADF80E000020ADF831
:101640000C00ADF80A00ADF8080001A90F48FFF73B
:10165000F9FE01210D48FFF78CFE012240F22551D1
:101660000A48FFF7C9FE26208DF8000001208DF8FA
:10167000030000208DF801008DF802006846FFF796
:1016800089F906B010BD0000000801400044004088
:101690000FB410B5CCB0044650A801904FF494712B
:1016A00002A8019B4F9A00F06FF80020019000BF44
:1016B00009E000BF218801F080010029FAD002A9C9
:1016C000095CA180401C02A9095C0029F1D14CB041
:1016D00010BC5DF814FB000070B50446002520E046
:1016E00004F0800018B101200F49086002E00020DA
:1016F0000D490860FFF790F801200B49091F0860A9
:10170000FFF78AF800200949C1F8A001072D02D18E
:101710000120054908606006040EFFF77DF8681C8B
:10172000C5B2082DDCDB70BDA481214200802142BE
:1017300010B50446FFF798F87820FFF7CDFFFFF7C4
:10174000BFF80020FFF7C8FFFFF7BAF82046FFF701
:10175000C3FFFFF7B5F8FFF7A1F810BD10B50446B9
:10176000FFF782F87820FFF7B7FFFFF7A9F84020CE
:10177000FFF7B2FFFFF7A4F82046FFF7ADFFFFF732
:101780009FF8FFF78BF810BD7CB5044600201D467E
:10179000164600290BD0491ECDE90041044B6A468C
:1017A0002946304600F0D8F8009A002111707CBD1F
:1017B0008720000802E008C8121F08C1002AFAD1D9
:1017C00070477047002001E001C1121F002AFBD1C1
:1017D000704700002DE9FF5F82B00021DDE9043091
:1017E000020DDDF840B0034318D044F61050A2F2C9
:1017F000FF3242431514119801281FD0A5EB0B00AE
:10180000401C5FEA000A4FF000064E4FDFF83891A7
:10181000B046504615D5CAF1000413E011980124D2
:101820004AA3012801D16FEA0B010298119AC0E97D
:101830000031C0E9024206B0BDE8F09FCBF10000E4
:10184000DFE704460021404A491842EB0450CDE945
:10185000001012E0E00707D032463B4640464946BA
:10186000FEF758FD8046894632463B4610461946EB
:10187000FEF750FD06460F466410002CEAD1DDE964
:101880000401DDE90023BAF1000F06DAFEF742FD9C
:1018900042464B46FEF73EFD05E0FEF7ADFD4246F3
:1018A0004B46FEF7A9FD04460E460022284BFEF7E4
:1018B0002BFE03D84FF0FF30014607E00022254BF6
:1018C00020463146FEF77FFCFEF705FE102409E0B6
:1018D000002C0ADB0A220023FEF744FC039B303273
:1018E0001A55641E50EA0102F2D1641C039AC4F135
:1018F00011031444119A012A03D0012208430DD187
:101900000AE0084304D000204FF0110B119072E759
:10191000A3EB0B056D1E0DE05B4504DD4FF00002EF
:1019200005F1010504E003DA4FF00002A5F101051D
:10193000002AECD002981199C0E90231C0E90045B3
:1019400079E70000000014400000F03F3000000084
:101950000000F0430000E03F2DE9FF4F95B09B46AB
:101960008946064600250FE2252877D10024274620
:10197000F84A0121059400E0044316F8013F203B9A
:1019800001FA03F01042F7D130782A2811D06FF015
:101990002F033078A0F13002092A16D8059A44F0B6
:1019A000020402EB820203EB42021044761C059013
:1019B000EFE759F8042B0592002A03DA504244F469
:1019C0000054059044F00204761C30782E2816D17D
:1019D00016F8010F44F004042A280DD06FF02F02EE
:1019E0003078A0F13003092B09D807EB870302EB0D
:1019F0004303C718761CF3E759F8047B761C30784C
:101A00006C280FD006DC4C2817D068280DD06A2827
:101A100014D104E0742810D07A280FD10DE044F4DA
:101A200000140AE044F4801401E044F44014727895
:101A3000824202D104F58014761C761C3078662828
:101A40000BD013DC582877D009DC002875D0452846
:101A5000F6D04628F4D047281AD19DE118E0632833
:101A600035D0642879D0652812D195E1702873D0DB
:101A700008DC6728F1D069286FD06E280DD06F2858
:101A800006D1B5E073282CD0752875D0782874D08D
:101A90005A46179990476D1C75E1C4F3025002280D
:101AA00009D003280DD0D9F8001004280DD00D60FE
:101AB00009F1040967E1D9F80010EA17C1E90052F9
:101AC000F6E7D9F800100D80F2E70D70F0E719F88D
:101AD000041B8DF8001000208DF80100EA4601205B
:101AE00003E059F804AB4FF0FF3061074FF00001FD
:101AF00002D40DE008F101018846B9420FDA8045B1
:101B0000F8DB1AF808100029F4D108E008F1010107
:101B100088468142FADB1AF808100029F6D10598A8
:101B20005B46A0EB080721463846179A00F094FA66
:101B3000284400EB080507E04DE029E10DE01AF824
:101B4000010B5A4617999047B8F10108F7D25B4646
:101B500021463846179A13E142E00A220092C4F364
:101B600002524FF0000A022A08D059F804CB032A87
:101B70004FEAEC710AD00DE029E02AE009F10701F3
:101B800021F00702F2E802C1914609E00FFA8CFC4D
:101B90004FEAEC71042A03D14FFA8CFC4FEAEC7146
:101BA000002907DA0A460021DCF1000C61EB020192
:101BB0002D2202E0220504D52B228DF804200122DB
:101BC00003E0E20701D02022F7E7904659E00A211E
:101BD00002E010220DE010214FF0000A00910BE00E
:101BE00010224FF0000A44F004040827009203E09A
:101BF00008224FF0000A0092C4F30252022A05D0D4
:101C000059F804CB0021032A08D009E009F10701A3
:101C100021F00702F2E802C1914605E01FFA8CFCB0
:101C2000042A01D10CF0FF0C4FF00008220728D540
:101C3000702806D0009B83F0100353EA0A0305D0F6
:101C40000EE040228DF80420012208E05CEA010247
:101C500006D030228DF804208DF80500022290462F
:101C6000009B83F0080353EA0A030AD15CEA0102ED
:101C700001D1620705D530228DF804204FF001080C
:101C80007F1E582804D034A003900EA802900DE0C7
:101C900036A0F9E753466046009AFEF763FA844699
:101CA0000398825C0298401E029002705CEA010078
:101CB000F0D1029806A9081A00F1200A600702D59F
:101CC00024F4803400E00127574502DDA7EB0A0029
:101CD00000E0002000EB0A01009005984144401A02
:101CE0000590E00306D45B462146179A059800F05C
:101CF000B3F90544002706E001A85A46C05D1799CC
:101D000090476D1C7F1C4745F6DBE0030CD55B4616
:101D10002146179A059800F09FF9054404E0302009
:101D20005A46179990476D1C0099481E009000294B
:101D3000F5DC08E0029802995A460078491C0291A5
:101D4000179990476D1CBAF10001AAF1010AF1DC64
:101D500065E100000928010030313233343536376F
:101D600038396162636465660000000030313233E7
:101D70003435363738394142434445460000000087
:101D800000F058F90544761C307800287FF4ECAD5B
:101D900019B02846BDE8F08F620700D4062709F184
:101DA000070222F0070CFCE80223E14603F000489A
:101DB0005FEA080C02D00FF2702C0DE05FEA045CC1
:101DC00002D50FF2682C07E05FEAC47C02D00FF264
:101DD000602C01E0AFF2700C4FF0FF3823F00043AD
:101DE000CDF850C065280CD006DC452809D046281F
:101DF0001DD047283DD13DE0662818D067287ED108
:101E000038E00021112F01DB112000E0781CCDE922
:101E1000000106A90EA8FFF7DDFCDDE90F010E9A0F
:101E200003910021009207F1010A04914DE04FF067
:101E300000400097CDE9011006A90EA8FFF7CAFCE3
:101E4000DDE90F0203920E9B11990022DDF80CA030
:101E50000093049211B9791C00EB010AB7EB0A0058
:101E600004D4C0F1FF3007F1010A0490AAEB070087
:101E7000019044E0012F00DA01270021112F01DD3C
:101E8000112000E03846CDE9000106A90EA8FFF7B1
:101E9000A1FCDDE90F010E9A03910021049100924B
:101EA000BA4621070CD40399514500DA8A46BAF1A3
:101EB000010F05DD009AAAF10101515C302908D01B
:101EC000B84202DA10F1040F06DA0121CDE901105F
:101ED00015E0AAF10101E9E7002805DC04990144B5
:101EE0000491AAEB000102E0411C514500DD8A4645
:101EF0000499401A401C01904FF0004002902007C6
:101F000004D40198504501DBCDF8048000208DF801
:101F10004F0002980DF14F07B0F1004F25D02B2054
:101F20000E9002984FF0020800280CDA404202900E
:101F30002D200E9007E00A210298FEF7FDF83031BF
:101F4000029007F8011DB8F10001A8F10108F2DCC8
:101F500002980028EFD1791E0E980870307800F0B2
:101F6000200040F0450007F8020D12A8C01B00F148
:101F700007081498007800B1012000EB0A010198CD
:101F800001EBE07105984144401A401E0590E003C2
:101F900006D45B462146179A059800F05DF8054483
:101FA0001498007818B15A46179990476D1CE003B1
:101FB00024D55B462146179A059800F04DF8054454
:101FC0001CE00498002807DBDDE90301884203DDFB
:101FD0000098405C179901E0179930205A469047C5
:101FE000049805F10105401C04900198401E0190E1
:101FF00004D12E205A46179990476D1CBAF1000162
:10200000AAF1010ADDDC05E017F8010B5A46179921
:1020100090476D1CB8F10001A8F10108F4DC5B46A3
:102020002146179A0598ABE62D0000002B00000012
:10203000200000002DE9F041044600251E46174609
:10204000880404D405E039462020B0476D1C641E86
:10205000F9D52846BDE8F0812DE9F0410446002578
:102060001E469046C80301D5302700E0202788048B
:1020700004D505E041463846B0476D1C641EF9D5CD
:102080002846BDE8F0814A68002A06D00A68531C39
:102090000B6010704868401E4860704710B56FF0C4
:1020A0000400FEF75DFF0A4800680A49B0FBF1F042
:1020B000094908700846007800EB4001C1EBC010E8
:1020C0004FF6FF7101EAC0000449088010BD00000E
:1020D0000C00002000127A000600002008000020FA
:1020E0000146114A12884A434FF0E0235A61002208
:1020F0009A611A46126942F001021A6100BF4FF05C
:10210000E022106900F001021AB100F48032002AC6
:10211000F5D04FF0E022126922F001024FF0E023E7
:102120001A6100229A617047080000201CB5FFF771
:10213000B5FF3220FFF7D4FF4FF4E130FFF7FAF993
:102140004FF4E130FFF74EFAFEF7F2FBFEF7DCFB4F
:10215000FEF77AFCFEF756FC18A200210846FEF7AF
:10216000E7FC18A200214020FEF7E2FC17A20221A2
:102170000020FEF7DDFC17A202214020FEF7D8FC6C
:102180001BE016480078401C144908700846007887
:1021900064280FD10020087011480078114909788F
:1021A000CDE9001010480378104802781049114812
:1021B000FFF76EFA0A20FFF793FFE2E7CEC2B6C838
:1021C00000000000CAAAB6C800000000BFD5C6F8CB
:1021D00000000000C1C1B6C80000000005000020DA
:1021E0000300002002000020010000200000002069
:1021F000102200080038014010B50246012000E01E
:1022000050430B1EA1F10104E1B2F9D110BD000051
:10221000636D643D32267569643D32356539353705
:102220003830666431643430376538366436613648
:102230003835633866376333646526746F70696355
:102240003D7A6967626565266D73673D2325642362
:102250002564232564232564230D0A007C220008BD
:1022600000000020340B000078060008B8290008A0
:10227000340B002084050000C417000841821E842E
:10228000A24A041009010203040607080917FE0503
:10229000AAAA9A8A5FFFF1FE05BBBB095BCCCC09F9
:1022A0005BDDDD093BEEEE09A1294069440513021F
:1022B00004060872F852331C100C0603912C40C01F
:1022C0007803112C043F040321367088FC08301D6C
:1022D0001820FF21B114F008F033E0184D211C0341
:1022E0001E112B8870CC000B1021232419272110DC
:1022F00010160E45E018040225071820403D020480
:1023000018E0692C20180707174080F08040403FF4
:102310000202010F0102283AF0C81C01011F0491BA
:102320002B80B066B1191D2901912A30A5592C14B2
:102330006018043C6018061D1EE010080810721F8B
:102340000F102020100FF05310F83620203F2020CF
:102350003C700808C21E3028242221441E30088800
:102360008848082E1820202011CC3BC02032270797
:102370000424243F241AF8202308084B192120366E
:10238000E0108888184B0F11101E380808C8382034
:1023900021523F1A702E29608F1C222121221C906D
:1023A000111D31222211901961CAC0C26A80C6591A
:1023B000081C40201050170102040810204A400158
:1023C000114A04012119152A403219251B0402F271
:1023D0001B7048D13AF0501A360F1EC030C828E89A
:1023E0007028080718272423140B6F2A387E280D1D
:1023F000203C23020227382008F888889F4B203F82
:10240000F01BC0303F1B083830191019781B08F832
:102410000F194039201B100F103E8888E808101053
:10242000AC23201810112A035E2940223829402CA1
:10243000221E024019A41809F808203F2101012199
:10244000252A0852298129424149112EC0808080C5
:102450007F0E2FF888C0281808501C0126382F2915
:1024600040292F29801B20301012F81AF81413204D
:102470003F190229204B30C0601A2074123F4BE0F4
:1024800010B06B0F10B029D01AF0301980220179EA
:10249000203F18242438504FC04C888870C0140C3A
:1024A00030204B7088C11738202121221C3A189FF8
:1024B0004A188239A049D0112A1F90121F24087887
:1024C000881BC838151C07380E60191A1AF8201115
:1024D00014033C0714073C034814081868808068FC
:1024E000180820302C03032C30200838C82F5950EE
:1024F000298F29102F203826212020681145FE021F
:102500000202257F4040401A0CE0611C0106380B96
:10251000191D42FE191D527F1A04120211045A801D
:10252000011930D91D391621180819242222223FF9
:1025300020AB390F115F3F112020110E21311A0EEF
:10254000104B2011104B88F8102A10B359401A1F55
:102550003F2B22130F16F0888888181A20D029D113
:10256000497A21176B94949493603960190F4C2029
:102570003F21F354809898793059121AC02719D105
:10258000193039311F203F24022D30212A081289A9
:102590003069D7294B2903190BC96079A019BF2BC2
:1025A000201FDD390F9C80FFA1E0191229D03BA02C
:1025B000FF0C3950194112208A01C01B3324012A13
:1025C000190F3AE0413952290F392349603C103F35
:1025D000202C29053F010E3008060170291038080B
:1025E0000F300C030C300F2C49A14E312E0E312030
:1025F0000C29621D818E70183059D1215721302C41
:1026000022213055807C0202443F404072FF39084D
:102610003C02027C8F5440403F4E02010202042FD4
:1026200061500CC020100808E808081020C01A07E4
:102630000A4808202121211108075E2FC0602020B0
:1026400060C0452BFEFFF1111C01FFFE05280907A4
:102650000E181010180E0713A6404040C0E06AFF85
:10266000821E1010101F1F0529471B4020014948DA
:102670001B0303772C60301F611D181C1211222BC5
:10268000101E8B7AC023111B01013E2C182FE70D61
:102690002B0E0E224B180F91294D3AE06E380BC0CD
:1026A000A098848380FFFF8080331931296E312AFE
:1026B000E06C1901411A3FDF2C0818F0312B070B91
:1026C000481B1C0F7F29D829922AE0F57CFCFF21AA
:1026D000251C01070CD83B10082529FB29252A6059
:1026E0009129587A18835B1F1F8B492439B6180B20
:1026F00083CF6C1810303068CF836C8B0F08B539DE
:10270000D93A20D9300B1F3F604040402010FFFED7
:102710007B0C1C6B01100C111C1C1C0C700AF88823
:102720008C8A89888888F84BFF440142FF1C40440A
:10273000C40B1D401010FF5622F0400F103C131028
:1027400014B840300E014080403F2A240137FC225B
:10275000222223222A02013C42827F081302022005
:102760000F1010D0FF9014E4AFA4A4A4AFE404139E
:10277000040312FF180B894B2A1A0E1A2A4B888061
:10278000202A90013960241116101D2060203F6B13
:102790001117030C102040F8280F4020F807F0A074
:1027A000904C5724A4544C80ED12FF300A1F8092A5
:1027B0005249292412081B048401180AFC4030CC19
:1027C0000B0808F808121B7F20FE1809804021160C
:1027D00008162140302AFC201967190119632129A4
:1027E0005D19B83E010640807FFE1301061EF012FF
:1027F0001212F2AE3AFE5F21161F1111111F39217C
:10280000180C804020908886808080838C9019509E
:1028100019111B18071C49FD19FE1BA4FEF91BC04A
:10282000383914081060200F080601FF0106818066
:10283000404027100C03251060028C2BFE920129CA
:102840005F180A04047E01407E42427E024C427EB2
:102850004020491F7920300C4448507F40407F5031
:102860004844402809FC242424FC2526240812047A
:10287000180D40308F80844C55252525554C9611D8
:102880002010100C442414040506040414244414D9
:102890000C1C404041012A7F051A403F4E20104C3D
:1028A000475401D4D40404350F3040F02A40013A93
:1028B000FF06690E197D590811151010FF101E82B0
:1028C000BAEABA83042282281008180F04484A2A58
:1028D000FF8A4A1A2F5A8A88B11E7454545556607A
:1028E0002A74602F848341211D0501267D81818505
:1028F000E3280DF80122A0A2A222FE22AA3202E1C0
:1029000012FF300C10130A4B20170C133880FF18DD
:102910000D8060F80704E4A4A4BFA4A4E4401A0155
:1029200022197F2A4A01198511102BD7D4B6AFCAB4
:10293000D6C4A3CABDD0DEB8C4CAB1BCE4B7D6C33E
:10294000EBCEC2CAAAB6C8BFD5C6F8CDC1C8C0C1F1
:10295000C1E3D0D6B51835202122232425262728E7
:10296000292A2B2C2D2E2F3031323334353637385F
:10297000393A3B3C3D3E3F4041424344454647484F
:10298000494A4B4C4D4E4F50515253BA60295758FB
:10299000595A5B5C5D5E5F6061626364656667682F
:1029A000696A6B6C6D6E6F7071727374757677781F
:0829B000797A7B7C7D7E00003A
:0400000508000101ED
:00000001FF
