:020000040800F2
:10000000F005002001010008050B0008C9080008E0
:1000100075090008350500084313000800000000BA
:10002000000000000000000000000000C90C0008F3
:100030004907000800000000790B0008DD0D0008EA
:100040001B0100081B0100081B0100081B01000820
:100050001B0100081B0100081B0100081B01000810
:100060001B0100081B0100081B0100081B01000800
:100070001B0100081B0100081B0100081B010008F0
:100080001B0100081B0100081B0100081B010008E0
:100090001B0100081B0100081B0100081B010008D0
:1000A0001B0100081B0100081B0100081B010008C0
:1000B0001B0100081B0100081B0100081B010008B0
:1000C0001B0100081B0100081B0100081B010008A0
:1000D0001B010008410E0008950F0008FD100008E4
:1000E0001B0100081B0100081B010008DFF80CD0F1
:1000F00000F0A0F800480047F1140008F0050020C7
:100100000648804706480047FEE7FEE7FEE7FEE7B1
:10011000FEE7FEE7FEE7FEE7FEE7FEE7E10D00088B
:10012000ED0000080EB5C10F80EAE0700844CA0770
:10013000002140F233438DE80E000A460B4600F0E2
:100140002AF803B000BD000030B5041E71F10004B0
:1001500004DB4FF00044404264EB0101141E73F1D4
:10016000000405DB1C464FF00043524263EB0403DE
:100170008B4208BF824230BD10B5141E73F10004DB
:1001800008DA401C41F1000192185B411A4301D189
:1001900020F0010010BD2DE9F04D92469B4611B1B3
:1001A000B1FA81F202E0B0FA80F22032904600F01B
:1001B00053F804460F4640EA0A0041EA0B01534651
:1001C0005A46084313D0114653EA010019D0C8F12A
:1001D0004002504600F04FF805460E46504659463C
:1001E000424600F039F8084305D0012004E02046DB
:1001F0003946BDE8F08D0020054346EAE0762C4301
:1002000037430A986305E40AA0EB08000022FD0AC0
:1002100044EA47540A3002D500200146E9E70105C7
:1002200010196941DDE9084500196941BDE8F04D43
:10023000A2E70000064C074D06E0E06840F001032D
:1002400094E8070098471034AC42F6D3FFF752FF0A
:100250000C1700082C170008202A04DB203A00FAAB
:1002600002F1002070479140C2F1200320FA03F30D
:10027000194390407047202A04DB203A21FA02F00B
:100280000021704721FA02F3D040C2F120029140D0
:1002900008431946704721B1826842F0010282602A
:1002A00003E0826822F001028260704710B50446C4
:1002B0001248844208D10121401500F08BFC002136
:1002C000601500F087FC17E00D48844208D1012139
:1002D000001500F07FFC0021201500F07BFC0BE0F6
:1002E0000848844208D10121C80300F073FC0021B2
:1002F0004FF4004000F06EFC10BD000000240140EF
:1003000000280140003C0140014600208A6802F0BC
:1003100004020AB1012000E0002070470146C86CC9
:1003200080B270470246002013680B400BB10120D9
:1003300000E000207047014600208A6802F00802B1
:100340000AB1012000E000207047000030B50246ED
:100350000020002350680F4C20400D790C6844EABF
:1003600005242043506090680B4C2040D1E9025492
:100370002C434D7944EA450420439060D06A20F430
:1003800070000C7C641EE4B2234340EA0350D06248
:1003900030BD0000FFFEF0FFFDF7F1FFF0B50446B1
:1003A0000D4600200021092D11DDE068A5F10A06A7
:1003B00006EB4607072606FA07F18843A5F10A0669
:1003C00006EB460603FA06F10843E0600CE02069FC
:1003D00005EB4507072606FA07F1884305EB4506B6
:1003E00003FA06F108432061072A0FDA606B561EF4
:1003F00006EB86071F2606FA07F18843561E06EB12
:10040000860605FA06F10843606322E00D2A0FDA3A
:10041000206BD61F06EB86071F2606FA07F18843D6
:10042000D61F06EB860605FA06F10843206310E0A6
:10043000E06AA2F10D0606EB86071F2606FA07F111
:100440008843A2F10D0606EB860605FA06F108437D
:10045000E062F0BD816841F008018160704721B120
:10046000826842F4A002826003E0826822F4A00263
:1004700082607047816841F004018160704700002C
:1004800000B587B00121042000F094FB0121082071
:1004900000F090FB0121480200F08CFB4FF400407B
:1004A00000F06CFB0320ADF8180000208DF81B0055
:1004B00006A91D4800F049F90120ADF818000020F8
:1004C0008DF81B0006A9194800F03FF91848FFF7FE
:1004D000EDFE002001908DF808008DF809004FF422
:1004E000602003900020049001208DF8140001A9E1
:1004F0000F48FFF72BFF01210D48FFF7CCFE0C48FA
:10050000FFF7A8FF00BF0A48FFF715FF0028FAD140
:100510000748FFF7AFFF00BF0548FFF7F5FE0028CB
:10052000FAD107B000BD0000000C014000080140F6
:100530000024014000BFFEE710B5002404E0601C69
:10054000C4B2012000F0AEFF0D48006808B1642C71
:10055000F5DB642C01DB012010BD002404E0601CED
:10056000C4B2012000F09EFF0548006808B9642C61
:10057000F5DB642C01DB0120EEE70020ECE7000056
:100580001881214208B50121082000F013FB40200A
:10059000ADF8000014208DF8030003208DF8020050
:1005A0006946024800F0D1F808BD0000000C014087
:1005B00010B5002404E0601CC4B2012000F072FFFA
:1005C0000D48006808B1642CF5DB002404E0601CD1
:1005D000C4B2012000F066FF0748006808B9642C27
:1005E000F5DB232000F05EFF0348006808B101201E
:1005F00010BD0020FCE700001881214270B50024E6
:10060000002506E06006040EFFF7D2FF0443681CD5
:10061000C5B2082DF6DB204670BD00007CB500F0A9
:100620007FF8FFF789FF00286FD1002405E0FFF76E
:10063000E5FF0DF80400601CC4B2052CF7DB9DF843
:1006400000009DF8011008449DF8021008449DF830
:10065000031008449DF80410884215D19DF800004D
:100660002A4908709DF8010048709DF802008870C2
:100670009DF80300C8700846807825490870234813
:1006800000782449087033E020498978204A12789C
:10069000501AFFF747FD21F00041054600221E4B8E
:1006A000FFF752FD1FD2194909781A4A1278501AD9
:1006B000FFF738FD21F0004105460022164BFFF7F9
:1006C00043FD10D29DF80000104908709DF801000C
:1006D00048709DF8020088709DF80300C8700020E3
:1006E0000E49087004E00D480078401C0B49087062
:1006F0000A480078052808DD002008490870FF2016
:100700000249087048708870C8707CBD6000002085
:100710006500002066000020000008406400002002
:1007200010B5002006490860142000F095FE012055
:100730000449C1F898011E2000F0B4FE10BD00006D
:10074000988121420080214270472DE9F041024604
:1007500000250026002000230024002791F803C074
:100760000CF00F0591F803C00CF0100CBCF1000F59
:1007700003D091F802C04CEA050591F800C0BCF125
:10078000000F31D0146800202BE04FF0010C0CFA60
:1007900000F3B1F800C00CEA03069E4220D18300AA
:1007A0004FF00F0C0CFA03F7BC4305FA03FC4CEABC
:1007B000040491F803C0BCF1280F06D14FF0010CDE
:1007C0000CFA00FCC2F814C00AE091F803C0BCF1B6
:1007D000480F05D14FF0010C0CFA00FCC2F810C014
:1007E000401C0828D1D31460B1F800C0BCF1FF0F41
:1007F00034DD546800202EE000F1080C4FF00108B1
:1008000008FA0CF3B1F800C00CEA03069E4221D1AD
:1008100083004FF00F0C0CFA03F7BC4305FA03FCFE
:100820004CEA040491F803C0BCF1280F05D100F193
:10083000080C08FA0CF8C2F8148091F803C0BCF157
:10084000480F07D100F1080C4FF0010808FA0CF826
:10085000C2F81080401C0828CED35460BDE8F08157
:10086000416170470161704710B50446E1B207234A
:1008700001220948FFF792FD01210748FFF7EFFD2C
:1008800000BF02210448FFF74DFD0028F9D00248BF
:10089000FFF744FD10BD0000002401402DE9F041A8
:1008A00007460C460025002608E03846FFF7DCFF27
:1008B00005440A2000F0D0FD701CC6B2A642F4DB4D
:1008C00095FBF4F0BDE8F08100BFFEE708B501211B
:1008D0001C2000F06FF94FF40050ADF8000010201C
:1008E0008DF8030003208DF8020069461A48FFF7CF
:1008F0002CFFA020ADF8000010208DF8030003208D
:100900008DF8020069461548FFF71FFF41F202000B
:10091000ADF8000010208DF8030003208DF80200D0
:1009200069460F48FFF711FF4FF40060ADF8000073
:1009300048208DF8030069460948FFF706FF0120AB
:10094000084908600849C1F8840100200749086087
:100950000749C1F89C0108BD00100140000C01408E
:1009600000080140B401224200002142B0012142AE
:100970000080214200BFFEE708B50121042000F0FD
:1009800019F9F020ADF8000010208DF803000320C5
:100990008DF8020069460A48FFF7D7FE1021084883
:1009A000FFF75EFF20210648FFF75AFF4021044869
:1009B000FFF756FF80210248FFF752FF08BD0000F5
:1009C0000008014010B510212548FFF74BFF2021FA
:1009D0002348FFF745FF40212148FFF741FF8021D1
:1009E0001F48FFF73DFF0A2000F036FD10211C488C
:1009F000FFF736FF20211A48FFF734FF402118483F
:100A0000FFF72EFF80211648FFF72AFF0A2000F08B
:100A100023FD10211248FFF723FF20211048FFF784
:100A20001FFF40210E48FFF71DFF80210C48FFF7F4
:100A300017FF0A2000F010FD10210948FFF710FFF2
:100A400020210748FFF70CFF40210548FFF708FF6A
:100A500080210348FFF706FF0A2000F0FDFC10BDCF
:100A60000008014010B520212548FFF7F9FE40217C
:100A70002348FFF7F5FE80212148FFF7F1FE102102
:100A80001F48FFF7EFFE0A2000F0E6FC20211C487B
:100A9000FFF7E6FE40211A48FFF7E2FE80211848E2
:100AA000FFF7E0FE10211648FFF7DAFE0A2000F0FB
:100AB000D3FC20211248FFF7D3FE40211048FFF756
:100AC000D1FE80210E48FFF7CBFE10210C48FFF726
:100AD000C7FE0A2000F0C0FC20210948FFF7C2FE33
:100AE00040210748FFF7BCFE80210548FFF7B8FE0C
:100AF00010210348FFF7B4FE0A2000F0ADFC10BD42
:100B0000000801407047000070B5002100230F224B
:100B1000C47804B3154C246804F4E064C4F5E064BC
:100B2000210AC1F10403CA40447804FA03F184782D
:100B30001440214309010E4C0678A155047804F0B5
:100B40001F050124AC4005786D11AD0005F1E025CD
:100B5000C5F8004109E0047804F01F050124AC4009
:100B6000044D0678761145F8264070BD0CED00E086
:100B700000E400E080E100E0704700000146002052
:100B8000034A506820F4404008435060704700001A
:100B90000010024029B1064AD2690243044BDA61CF
:100BA00004E0034AD2698243014BDA6170470000D6
:100BB0000010024029B1064A92690243044B9A612F
:100BC00004E0034A92698243014B9A617047000036
:100BD0000010024029B1064AD2680243044BDA6091
:100BE00004E0034AD2688243014BDA607047000098
:100BF0000010024030B500210022002400232D4DBA
:100C00006D6805F00C0121B1042905D0082923D114
:100C100005E0294D056022E0274D05601FE0254DC8
:100C20006D6805F47012234D6D6805F4803402255B
:100C300005EB92421CB9214D554305600BE01D4D5B
:100C40006D6805F400351DB11C4D5543056002E08B
:100C5000194D5543056002E0174D056000BF00BF08
:100C6000144D6D6805F0F0010909154D6B5C0568C0
:100C7000DD4045600F4D6D6805F4E061090A104DD7
:100C80006B5C4568DD4085600A4D6D6805F4605118
:100C9000C90A0B4D6B5C4568DD40C560054D6D684C
:100CA00005F44041890B074D6B5CC568B5FBF3F556
:100CB000056130BD0010024000127A0000093D00BD
:100CC0004A0000205A000020704710B500F002F8DA
:100CD00010BD00000CB50020019000903348006862
:100CE00040F480303149086000BF3048006800F4AB
:100CF000003000900198401C0190009818B90198AC
:100D0000B0F5A06FF1D12948006800F4003010B1AF
:100D10000120009001E0002000900098012843D1BC
:100D20002348006840F01000214908600846006828
:100D300020F0030008600846006840F002000860E8
:100D40001A484068194948600846406848600846A3
:100D5000406840F4806048600846406820F47C1099
:100D600048600846406840F4E8104860084600685B
:100D700040F08070086000BF0C48006800F0007010
:100D80000028F9D00948406820F00300074948606E
:100D90000846406840F00200486000BF03484068D1
:100DA00000F00C000828F9D10CBD00000010024032
:100DB00000200240042808D14FF0E021096941F0E9
:100DC00004014FF0E022116107E04FF0E0210969D2
:100DD00021F004014FF0E0221161704770470000DC
:100DE00010B51348006840F001001149086008463A
:100DF0004068104908400E494860084600680E499E
:100E000008400B4908600846006820F4802008600C
:100E10000846406820F4FE0048604FF41F008860D8
:100E2000FFF753FF4FF000600449086010BD000059
:100E3000001002400000FFF8FFFFF6FE08ED00E0A2
:100E400010B540F225514D4800F0B6F900282ED0DB
:100E500040F22551494800F087F9484800F068FA07
:100E60004749484A1288885446480088401C4549EA
:100E7000088008460088401E4149085CFF2803D0CE
:100E800040480088802878D13D480078FE280FD15E
:100E90003B488078EE280BD13B48006808B9012018
:100EA00000E000203849086000203649088064E0EE
:100EB00033480078FE280AD131488078AA2806D124
:100EC0003148006818B900202E49088055E02C48A8
:100ED0000078FE2812D12A488078BB280ED12A48F3
:100EE000006858B92948006808B9012000E00020CE
:100EF000264908600020234908803EE02048007809
:100F0000FE2819D11E488078CC2815D11E480068CB
:100F100090B900201E49087006E0FFF753FD1C48F9
:100F20000078401C1A490870194800786428F4DBDE
:100F300000201449088020E011480078FE2819D1CB
:100F40000F488078DD2815D10F48006890B900203F
:100F50000F49087006E0FFF785FD0D480078401C3A
:100F60000B4908700A4800786428F4DB0020054922
:100F7000088002E000200349088010BD00380140CD
:100F80006C00002044000020B40122429C812142D8
:100F90000100002010B540F22551514800F00CF935
:100FA00000282ED040F225514D4800F0DDF84C4885
:100FB00000F0BEF94B494C4A128888544A480088D0
:100FC000401C4949088008460088401E4549085C85
:100FD000FF2803D044480088802812D14148007877
:100FE000FE280FD13F488078EE280BD13F4800689B
:100FF00008B9012000E000203C49086000203A497F
:1010000008806CE037480078FE2812D13548807897
:10101000AA280ED13548006858B93548006808B983
:10102000012000E000203249086000202E4908809D
:1010300055E02C480078FE2812D12A488078BB2839
:101040000ED12A48006858B92A48006808B901201A
:1010500000E00020274908600020234908803EE086
:1010600020480078FE2819D11E488078CC2815D158
:101070001E48006890B900201F49087006E0FFF77D
:10108000F1FC1D480078401C1B4908701A48007884
:101090006428F4DB00201449088020E0114800781F
:1010A000FE2819D10F488078DD2815D10F48006837
:1010B00090B900201049087006E0FFF783FC0E4845
:1010C0000078401C0C4908700B4800786428F4DB59
:1010D00000200549088002E000200349088010BD77
:1010E00000440040EC00002046000020B4012242F1
:1010F000840121429C8121420100002010B540F270
:101100002551174800F058F840B3154800F010F981
:10111000C4B2144804700078412803D1002011495A
:1011200008701AE00F480078422803D100200D49CA
:10113000087012E00B480078432803D100200949C9
:1011400008700AE007480078442803D100200549C8
:10115000087002E000200349087000BF10BD0000C5
:10116000004800406C01002010B50022002340F62A
:101170006A14A14200D100BF0A1201249440A3B214
:10118000DC43048010BD21B1828942F40052828187
:1011900004E082894DF6FF731A408281704702464F
:1011A0000020B1F5007F00D100BF13880B400BB1C8
:1011B000012000E00020704770B5024600240023A3
:1011C0000025002040F66A16B14200D100BFC1F3ED
:1011D000421501F01F03012606FA03F3012D02D187
:1011E0009689334006E0022D02D1168A334001E091
:1011F000968A33400C12012606FA04F4168834400D
:1012000013B10CB1012000E0002070BDF0B5034621
:10121000002400260025002040F66A17B94200D1BC
:1012200000BF1846C1F3421401F01F06012707FA58
:1012300006F5012C01D10C3004E0022C01D1103054
:1012400000E014301AB107682F43076002E0076816
:10125000AF430760F0BD00002DE9F04786B00546BA
:101260000E460024A24600BFA1460027B08900B167
:1012700000BF2F462C8A4CF6FF700440F0880443D0
:101280002C82AC894EF6F3100440B08831890843B3
:10129000718908430443AC81AC8A4FF6FF40044097
:1012A000B0890443AC8201A8FFF7A4FC1F48874221
:1012B00002D1DDF810A001E0DDF80CA0A88900F44F
:1012C000004040B10AEBCA0000EB0A103168490047
:1012D000B0FBF1F807E00AEBCA0000EB0A10316836
:1012E0008900B0FBF1F86420B8FBF0F0040120099C
:1012F000642101FB1089A88900F4004040B132202C
:1013000000EBC900B0FBF1F000F00700044308E077
:10131000322000EB09106421B0FBF1F000F00F0067
:1013200004432C8106B0BDE8F0870000003801407E
:1013300001468888C0F308007047C1F30802828024
:10134000704700BFFEE7000010B586B004460121DB
:101350000420FFF72FFC01214804FFF71BFC182095
:101360008DF817000420ADF8140003208DF8160046
:1013700005A91E48FFF7E9F904208DF81700082099
:10138000ADF8140003208DF8160005A91748FFF7E3
:10139000DCF901940020ADF810000C20ADF80E002F
:1013A0000020ADF80C00ADF80A00ADF8080001A966
:1013B0000F48FFF751FF01210D48FFF7E4FE01221E
:1013C00040F225510A48FFF721FF26208DF8000042
:1013D00001208DF8030000208DF801008DF8020037
:1013E0006846FFF791FB06B010BD00000008014001
:1013F0000044004002E008C8121F08C1002AFAD1C8
:1014000070477047002001E001C1121F002AFBD184
:101410007047000010B56FF00400FFF7CBFC0A48DE
:1014200000680A49B0FBF1F00949087008460078E5
:1014300000EB4001C1EBC0104FF6FF7101EAC000A4
:101440000449088010BD00003000002000127A001E
:101450002C0000202E0000200146114A12884A4329
:101460004FF0E0235A6100229A611A46126942F055
:1014700001021A6100BF4FF0E022106900F0010282
:101480001AB100F48032002AF5D04FF0E022126940
:1014900022F001024FF0E0231A6100229A617047A6
:1014A0002E0000200146114A12784A434FF0E023F3
:1014B0005A6100229A611A46126942F001021A61C9
:1014C00000BF4FF0E022106900F001021AB100F4F1
:1014D0008032002AF5D04FF0E022126922F001029A
:1014E0004FF0E0231A6100229A6170472C0000201F
:1014F000FFF790FF3220FFF7AFFF4FF4E130FFF727
:1015000023FFFFF7E3F9FEF7BBFFFFF735FAFFF71D
:1015100039F8DDE0FFF782F86E4880786E49087090
:101520006C4800786D4908700A210820FFF7B6F969
:10153000292190FBF1F06A4908700A210020FFF789
:10154000ADF9292190FBF1F0C0F164006549087004
:1015500061480078644988716048007863498871FF
:101560005F480078624988715E48007861498871F7
:101570006148006818B15A4800783C2804DD012011
:101580005D498431086003E000205B4984310860D4
:101590005A480068D8B153480078142804DA00206B
:1015A00055495831086003E001205349583108601B
:1015B00049480078202803DC48480078502803DD9B
:1015C00001204F49086002E000204D49086012E008
:1015D00045484C4A1278815C4B48FFF7AEFE00BF8D
:1015E00040214948FFF7DBFD0128F9D14548007843
:1015F000401C444908703C4842490978405CF12845
:10160000E6D100203F4908706420FFF725FF12E073
:1016100036483C4A1278815C3B48FFF78EFE00BF9B
:1016200040213948FFF7BBFD0128F9D13548007842
:10163000401C344908702D4832490978405CF12833
:10164000E6D100202F4908706420FFF705FF12E063
:1016500027482C4A1278815C2B48FFF76EFE00BFAA
:1016600040212948FFF79BFD0128F9D12548007842
:10167000401C244908701E4822490978405CF12822
:10168000E6D100201F4908706420FFF7E5FE12E054
:1016900018481C4A1278815C1B48FFF74EFE00BFB9
:1016A00040211948FFF77BFD0128F9D11548007842
:1016B000401C144908700F4812490978405CF12811
:1016C000E6D100200F4908704FF47A70FFF7C4FE8E
:1016D00020E700006000002002000020030000203E
:1016E0000400002005000020080000201100002058
:1016F0001A000020230000202C012142B4012242C4
:101700009C81214200000020004400402C1700086A
:10171000000000206C000000F41300089817000877
:101720006C00002084050000041400080000000084
:1017300000000000FE05A0A0998A00FFF1FE05A1AF
:10174000A1998A00FFF1FE05A2A2998A00FFF1FE8D
:1017500005A3A3998A00FFF10000000000A24A043B
:101760000000000000000000010203040607080951
:10177000000000000000000000000102030401025C
:101780000304060708090204060800000000000020
:08179000000000000000000051
:0400000508000101ED
:00000001FF
